{
  "contractName": "LottoCoin",
  "abi": [
    {
      "inputs": [],
      "stateMutability": "nonpayable",
      "type": "constructor"
    },
    {
      "anonymous": false,
      "inputs": [
        {
          "indexed": true,
          "internalType": "address",
          "name": "winner",
          "type": "address"
        },
        {
          "indexed": false,
          "internalType": "uint256",
          "name": "_rank",
          "type": "uint256"
        },
        {
          "indexed": false,
          "internalType": "uint256[]",
          "name": "_submit",
          "type": "uint256[]"
        },
        {
          "indexed": false,
          "internalType": "uint256[]",
          "name": "_answer",
          "type": "uint256[]"
        }
      ],
      "name": "WinOfLotto",
      "type": "event"
    },
    {
      "inputs": [
        {
          "internalType": "address",
          "name": "",
          "type": "address"
        }
      ],
      "name": "balanceOf",
      "outputs": [
        {
          "internalType": "uint256",
          "name": "",
          "type": "uint256"
        }
      ],
      "stateMutability": "view",
      "type": "function",
      "constant": true
    },
    {
      "inputs": [],
      "name": "owner",
      "outputs": [
        {
          "internalType": "address",
          "name": "",
          "type": "address"
        }
      ],
      "stateMutability": "view",
      "type": "function",
      "constant": true
    },
    {
      "inputs": [],
      "name": "total",
      "outputs": [
        {
          "internalType": "uint256",
          "name": "",
          "type": "uint256"
        }
      ],
      "stateMutability": "view",
      "type": "function",
      "constant": true
    },
    {
      "inputs": [
        {
          "internalType": "uint256",
          "name": "num",
          "type": "uint256"
        }
      ],
      "name": "SetCoin",
      "outputs": [],
      "stateMutability": "nonpayable",
      "type": "function"
    },
    {
      "inputs": [],
      "name": "GetCoin",
      "outputs": [
        {
          "internalType": "uint256",
          "name": "",
          "type": "uint256"
        }
      ],
      "stateMutability": "view",
      "type": "function",
      "constant": true
    },
    {
      "inputs": [],
      "name": "BuyLotto",
      "outputs": [],
      "stateMutability": "nonpayable",
      "type": "function"
    },
    {
      "inputs": [],
      "name": "ReceiveCoin",
      "outputs": [],
      "stateMutability": "nonpayable",
      "type": "function"
    },
    {
      "inputs": [
        {
          "internalType": "address",
          "name": "_to",
          "type": "address"
        },
        {
          "internalType": "uint256",
          "name": "amount",
          "type": "uint256"
        }
      ],
      "name": "Send",
      "outputs": [],
      "stateMutability": "nonpayable",
      "type": "function"
    },
    {
      "inputs": [
        {
          "internalType": "uint256",
          "name": "_rank",
          "type": "uint256"
        },
        {
          "internalType": "uint256[]",
          "name": "_submit",
          "type": "uint256[]"
        },
        {
          "internalType": "uint256[]",
          "name": "_answer",
          "type": "uint256[]"
        }
      ],
      "name": "Winning",
      "outputs": [],
      "stateMutability": "nonpayable",
      "type": "function"
    }
  ],
  "bytecode": "0x608060405234801561001057600080fd5b50600060038190555033600560006101000a81548173ffffffffffffffffffffffffffffffffffffffff021916908373ffffffffffffffffffffffffffffffffffffffff160217905550610e36806100696000396000f3fe608060405234801561001057600080fd5b50600436106100935760003560e01c806390796f281161006657806390796f2814610120578063dd6de4571461013c578063e974937814610146578063f6a324f614610164578063fc42f8331461018057610093565b80632ddbd13a1461009857806330a3c507146100b657806370a08231146100d25780638da5cb5b14610102575b600080fd5b6100a061018a565b6040516100ad91906108e3565b60405180910390f35b6100d060048036038101906100cb919061099c565b610190565b005b6100ec60048036038101906100e791906109dc565b6102ff565b6040516100f991906108e3565b60405180910390f35b61010a610317565b6040516101179190610a18565b60405180910390f35b61013a60048036038101906101359190610b8c565b61033d565b005b610144610538565b005b61014e610693565b60405161015b91906108e3565b60405180910390f35b61017e60048036038101906101799190610c17565b6106da565b005b610188610791565b005b60035481565b600560009054906101000a900473ffffffffffffffffffffffffffffffffffffffff1673ffffffffffffffffffffffffffffffffffffffff163373ffffffffffffffffffffffffffffffffffffffff16146101ea57600080fd5b80600460003373ffffffffffffffffffffffffffffffffffffffff1673ffffffffffffffffffffffffffffffffffffffff16815260200190815260200160002054101561023657600080fd5b80600460008473ffffffffffffffffffffffffffffffffffffffff1673ffffffffffffffffffffffffffffffffffffffff16815260200190815260200160002060008282546102859190610c73565b9250508190555080600460003373ffffffffffffffffffffffffffffffffffffffff1673ffffffffffffffffffffffffffffffffffffffff16815260200190815260200160002060008282546102db9190610cc9565b9250508190555080600360008282546102f49190610cc9565b925050819055505050565b60046020528060005260406000206000915090505481565b600560009054906101000a900473ffffffffffffffffffffffffffffffffffffffff1681565b600060018403610350576005905061038b565b60028403610361576003905061038a565b600384036103725760029050610389565b600484036103835760019050610388565b600090505b5b5b5b8060046000600560009054906101000a900473ffffffffffffffffffffffffffffffffffffffff1673ffffffffffffffffffffffffffffffffffffffff1673ffffffffffffffffffffffffffffffffffffffff1681526020019081526020016000205410156103f957600080fd5b3373ffffffffffffffffffffffffffffffffffffffff167f9d4a7520a5c69c3d38a91d26bc8685648a1fe9b8b6d90a317723c1ddc913a98885858560405161044393929190610dbb565b60405180910390a280600460003373ffffffffffffffffffffffffffffffffffffffff1673ffffffffffffffffffffffffffffffffffffffff168152602001908152602001600020600082825461049a9190610c73565b925050819055508060046000600560009054906101000a900473ffffffffffffffffffffffffffffffffffffffff1673ffffffffffffffffffffffffffffffffffffffff1673ffffffffffffffffffffffffffffffffffffffff16815260200190815260200160002060008282546105129190610cc9565b92505081905550806003600082825461052b9190610cc9565b9250508190555050505050565b600a60046000600560009054906101000a900473ffffffffffffffffffffffffffffffffffffffff1673ffffffffffffffffffffffffffffffffffffffff1673ffffffffffffffffffffffffffffffffffffffff1681526020019081526020016000205410156105a757600080fd5b600a600460003373ffffffffffffffffffffffffffffffffffffffff1673ffffffffffffffffffffffffffffffffffffffff16815260200190815260200160002060008282546105f79190610c73565b92505081905550600a60046000600560009054906101000a900473ffffffffffffffffffffffffffffffffffffffff1673ffffffffffffffffffffffffffffffffffffffff1673ffffffffffffffffffffffffffffffffffffffff16815260200190815260200160002060008282546106709190610cc9565b92505081905550600a6003600082825461068a9190610cc9565b92505081905550565b6000600460003373ffffffffffffffffffffffffffffffffffffffff1673ffffffffffffffffffffffffffffffffffffffff16815260200190815260200160002054905090565b600560009054906101000a900473ffffffffffffffffffffffffffffffffffffffff1673ffffffffffffffffffffffffffffffffffffffff163373ffffffffffffffffffffffffffffffffffffffff161461073457600080fd5b6103e881101561074357600080fd5b8060038190555080600460003373ffffffffffffffffffffffffffffffffffffffff1673ffffffffffffffffffffffffffffffffffffffff1681526020019081526020016000208190555050565b6001600460003373ffffffffffffffffffffffffffffffffffffffff1673ffffffffffffffffffffffffffffffffffffffff1681526020019081526020016000205410156107de57600080fd5b6001600460003373ffffffffffffffffffffffffffffffffffffffff1673ffffffffffffffffffffffffffffffffffffffff168152602001908152602001600020600082825461082e9190610cc9565b92505081905550600160046000600560009054906101000a900473ffffffffffffffffffffffffffffffffffffffff1673ffffffffffffffffffffffffffffffffffffffff1673ffffffffffffffffffffffffffffffffffffffff16815260200190815260200160002060008282546108a79190610c73565b925050819055506001600360008282546108c19190610c73565b92505081905550565b6000819050919050565b6108dd816108ca565b82525050565b60006020820190506108f860008301846108d4565b92915050565b6000604051905090565b600080fd5b600080fd5b600073ffffffffffffffffffffffffffffffffffffffff82169050919050565b600061093d82610912565b9050919050565b61094d81610932565b811461095857600080fd5b50565b60008135905061096a81610944565b92915050565b610979816108ca565b811461098457600080fd5b50565b60008135905061099681610970565b92915050565b600080604083850312156109b3576109b2610908565b5b60006109c18582860161095b565b92505060206109d285828601610987565b9150509250929050565b6000602082840312156109f2576109f1610908565b5b6000610a008482850161095b565b91505092915050565b610a1281610932565b82525050565b6000602082019050610a2d6000830184610a09565b92915050565b600080fd5b6000601f19601f8301169050919050565b7f4e487b7100000000000000000000000000000000000000000000000000000000600052604160045260246000fd5b610a8182610a38565b810181811067ffffffffffffffff82111715610aa057610a9f610a49565b5b80604052505050565b6000610ab36108fe565b9050610abf8282610a78565b919050565b600067ffffffffffffffff821115610adf57610ade610a49565b5b602082029050602081019050919050565b600080fd5b6000610b08610b0384610ac4565b610aa9565b90508083825260208201905060208402830185811115610b2b57610b2a610af0565b5b835b81811015610b545780610b408882610987565b845260208401935050602081019050610b2d565b5050509392505050565b600082601f830112610b7357610b72610a33565b5b8135610b83848260208601610af5565b91505092915050565b600080600060608486031215610ba557610ba4610908565b5b6000610bb386828701610987565b935050602084013567ffffffffffffffff811115610bd457610bd361090d565b5b610be086828701610b5e565b925050604084013567ffffffffffffffff811115610c0157610c0061090d565b5b610c0d86828701610b5e565b9150509250925092565b600060208284031215610c2d57610c2c610908565b5b6000610c3b84828501610987565b91505092915050565b7f4e487b7100000000000000000000000000000000000000000000000000000000600052601160045260246000fd5b6000610c7e826108ca565b9150610c89836108ca565b9250827fffffffffffffffffffffffffffffffffffffffffffffffffffffffffffffffff03821115610cbe57610cbd610c44565b5b828201905092915050565b6000610cd4826108ca565b9150610cdf836108ca565b925082821015610cf257610cf1610c44565b5b828203905092915050565b600081519050919050565b600082825260208201905092915050565b6000819050602082019050919050565b610d32816108ca565b82525050565b6000610d448383610d29565b60208301905092915050565b6000602082019050919050565b6000610d6882610cfd565b610d728185610d08565b9350610d7d83610d19565b8060005b83811015610dae578151610d958882610d38565b9750610da083610d50565b925050600181019050610d81565b5085935050505092915050565b6000606082019050610dd060008301866108d4565b8181036020830152610de28185610d5d565b90508181036040830152610df68184610d5d565b905094935050505056fea26469706673582212203b7c1c259970018ccb461ba8feea8cff8adb7dff6c9fb039cf8e9af152a04ac064736f6c634300080d0033",
  "immutableReferences": {},
  "source": "//SPDX-License-Identifier:MIT\r\npragma solidity >=0.4.21 <8.10.0;\r\n\r\ncontract LottoCoin {\r\n    uint[] submit; //   \r\n    uint256[] answer; //  \r\n    uint256 rank; //  \r\n    uint256 public total; //  \r\n    mapping (address => uint256) public balanceOf;\r\n    address public owner;\r\n\r\n    event WinOfLotto(address indexed winner, uint256 _rank, uint256[] _submit, uint256[] _answer);\r\n\r\n    modifier onlyOwner() {\r\n        require(msg.sender == owner);\r\n        _;\r\n    }\r\n\r\n    constructor() public {\r\n        total = 0;\r\n        owner = msg.sender;\r\n    }\r\n\r\n    function SetCoin(uint256 num) public onlyOwner {\r\n        require(num >= 1000);\r\n        total = num;\r\n        balanceOf[msg.sender] = num; \r\n    }\r\n\r\n    function GetCoin() public view returns(uint) {\r\n        return balanceOf[msg.sender];\r\n    }\r\n\r\n    function BuyLotto() public {\r\n        require(balanceOf[msg.sender] >= 1);\r\n        balanceOf[msg.sender] -= 1;\r\n        balanceOf[owner] += 1;\r\n        total += 1;\r\n    }\r\n\r\n    function ReceiveCoin() public {\r\n        require(balanceOf[owner] >= 10);\r\n        balanceOf[msg.sender] += 10;\r\n        balanceOf[owner] -= 10;\r\n        total -= 10;\r\n    }\r\n\r\n    function Send(address _to, uint256 amount) public onlyOwner {\r\n        require(balanceOf[msg.sender] >= amount);\r\n        balanceOf[_to] += amount;\r\n        balanceOf[msg.sender] -= amount;\r\n        total -= amount;\r\n    }\r\n\r\n    function Winning(uint256 _rank, uint256[] memory _submit, uint256[] memory _answer) public {\r\n        uint256 coin;\r\n        if(_rank == 1) coin = 5;\r\n        else if(_rank == 2) coin = 3;\r\n        else if(_rank == 3) coin = 2;\r\n        else if(_rank == 4) coin = 1;\r\n        else coin = 0;\r\n        \r\n        require(balanceOf[owner] >= coin);\r\n        emit WinOfLotto(msg.sender, _rank, _submit, _answer);\r\n        balanceOf[msg.sender] += coin;\r\n        balanceOf[owner] -= coin;\r\n        total -= coin;\r\n    }\r\n}",
  "sourcePath": "D:\\Solidity\\lotto\\contracts\\LottoCoin.sol",
  "compiler": {
    "name": "solc",
    "version": "0.8.13+commit.abaa5c0e.Emscripten.clang"
  },
  "schemaVersion": "3.4.7",
  "updatedAt": "2022-06-24T11:18:51.484Z",
  "networkType": "ethereum",
  "devdoc": {
    "kind": "dev",
    "methods": {},
    "version": 1
  },
  "userdoc": {
    "kind": "user",
    "methods": {},
    "version": 1
  }
}